:100000000040002095060000D5060000D70600003D
:1000100000000000000000000000000000000000E0
:10002000000000000000000000000000D9060000F1
:100030000000000000000000DB060000DD060000FC
:10004000DF060000DF060000B50D0000DF0600003F
:10005000DF06000000000000DF060000DF060000F1
:10006000DF0600007D090000DF060000DF0600005B
:10007000DF060000DF060000DF060000DF060000EC
:10008000DF06000041080000DF060000DF06000078
:10009000DF060000DF060000DF060000DF060000CC
:1000A000DF060000DF060000000000000000000086
:1000B0000000000000000000000000000000000040
:1000C000054B0648033310B51B1A062B03D9044B06
:1000D000002B00D0984710BDC4000020C4000020B1
:1000E000000000000648074910B5091A8910CB0F17
:1000F0005918491003D0044B002B00D0984710BD6D
:10010000C4000020C40000200000000010B5074C0F
:100110002378002B09D1FFF7D3FF054B002B02D02A
:10012000044800E000BF0123237010BDC40000207C
:100130000000000004150000094B10B5002B03D08F
:100140000849094800E000BF08480368002B02D1B5
:10015000FFF7C8FF10BD064B002BF9D09847F7E713
:1001600000000000C800002004150000C0000020AE
:1001700000000000164B002B00D1144B9D4640227E
:1001800092029A1A924600218B460F461348144A4F
:10019000121A01F036F80F4B002B00D098470E4B87
:1001A000002B00D098470020002104000D000D48CE
:1001B000002802D00C4800E000BF00F0F3FF200050
:1001C000290000F02BFE00F0D7FFC0460000080019
:1001D000004000200000000000000000C4000020DB
:1001E000843D00200000000000000000802110B5C8
:1001F000094C522300224900200000F097F9074AD9
:100200000749200000F0A2FF00F0DAFA054B186061
:10021000054800F0A1F910BDF43C002000000020CA
:10022000ED030000E4000020ED3C002000221A4B0A
:1002300070B51A70C022194B92001A80184B194AD7
:1002400005001A80184A194B19481A80194B198051
:1002500000F085F9F022184C9201002D04D01121F4
:10026000200000F0CEFF03E02900200000F0C9FFCD
:10027000124BDC600A2000F0D5FA114C200000F08F
:1002800069FC0028F6DA0F49200000F013FC20007A
:1002900000F01CFC70BDC046EC3C0020E8000020D3
:1002A000F23C00200103000002030000E0000020F7
:1002B000ED3C0020EA3C0020EA000020F43C002055
:1002C000103D00202214000010B5012000F0C8FAF3
:1002D00000F086FDE121074A4902074800F040FC92
:1002E000064800F08EF8FA2101204900FFF79EFF32
:1002F00010BDC04613040000103D0020F43C002057
:10030000F0B58BB000F05CFA00F05AFA2A4D2B4E93
:100310003060280000F0B6F8294C14212078013014
:1003200000F0E2FE0B022170264C8902C91A611806
:10033000E960254D2549280000F0BCFB280000F0AD
:10034000C5FB0594280000F005FC002829DB0727E1
:10035000C4B2274018D123000722934314D01C496C
:100360002800E40800F0A6FB013C280006AD00F0E0
:10037000ADFB64000E221749280000F039FF615BD5
:100380003800FFF753FF14E0F0239B010293124B58
:10039000059A0193114B210000931148114B00F075
:1003A000EFF800F00DFA104B32681B88801A834278
:1003B000C8D80BB0F0BDC046F43C0020E4000020DB
:1003C000EC3C0020EA000020103D00202A14000030
:1003D0003114000014140000E0000020E8000020A8
:1003E000ED3C0020F23C0020EA3C002010B5040067
:1003F0000623C05E002802DB002100F005FB200080
:1004000010BD10B504000623C05E002807DB0121E3
:1004100000F0FAFA0623E05E002100F013FB01234E
:10042000637010BDC27C037C4180D31A5A42534191
:100430000422D31A594381807047C37C027C70B573
:100440009A1A54425441E2B203248B110D118E10BA
:100450002640234025400C4046748474FF26002427
:100460008E426441C168C37405740470002907D0CA
:100470005B1B5C425C41944202D04188FFF7D2FF93
:1004800070BD0000F8B5C3680400002B2FD065696B
:1004900000F0AEF9854202D900F0AAF9606100F0DF
:1004A000A7F96369C01A2C23FF339842EFD972B6BB
:1004B0000621635E0E499B005B580121A28899408A
:1004C0000C48E36808E001702F4200D101717F08F9
:1004D00007D10133013A05D38027C04601711D7849
:1004E000F1E7FBE7017162B600F082F96061F8BDE7
:1004F000481400000805005070B5437804000D0052
:10050000002B06D00623C05E002802DB002100F08D
:100510007BFA6378E580002B07D00121280000F0EA
:1005200073FA0021280000F08DFA70BD70B5150037
:10053000002204000E0042700272C2604261190083
:10054000FFF77BFF31002000FFF76CFF2900200040
:10055000FFF7D2FF200070BD0023C3707047002357
:10056000C37070470023984208D04018FF33FE281C
:1005700004DCC2430300D2171340DBB218007047FB
:10058000F0B58BB0059312AB1B8804920693C37829
:100590000400C154022B74D1027805331100994331
:1005A0001A40079115001600427811001A4099432D
:1005B000099100928178080098430B4008900193BC
:1005C000291E914200DA11008B4203DA954202DCC7
:1005D000150000E01D0000230293029BAB4250D0A7
:1005E00007200821404200F00DFCC3B20393009B9A
:1005F000002B14D0013B0093109B0C211F88049BFF
:100600000998DF196B465956FFF7ACFF109B3870FD
:1006100018880699033000F067FD109B1980002EA2
:1006200013D0059B0C211F88049B0798DF196B468C
:100630005956FFF797FF059B3870188806990330C5
:1006400000F052FD059B013E1980019B002B14D048
:10065000013B0193119B0C211F88049B0898DF1913
:100660006B465956FFF77EFF119B38701888069924
:10067000033000F039FD119B1980029B0133DBB27E
:10068000AAE7E0780321013000F02EFDE1700BB005
:10069000F0BD000003210A4802680A4302600948CD
:1006A00002680A4302600849084A094B9B1A03DDA5
:1006B000043BC858D050FBDC00F012F8FFF75AFD9D
:1006C00024050040540500401015000000000020E3
:1006D000C4000020FEE7FEE7FEE7FEE7FEE7FEE7D8
:1006E0002D4B10B51A78012A19D12C4A126812071D
:1006F00015D12B4AE0241168F02208001040214255
:100700000BD128490968114209D12749274A1160AC
:100710008021274A0902116001E03028F1D01A78BF
:10072000012A0DD11D490968090709D1F0201C498A
:1007300009680140402903D11A490968014223D0C0
:100740001B68DBB2012B25D1144B1B681B0721D181
:10075000134B1A68F0231A40A02A04D1114A1268D8
:100760001A4203D016E0D02A14D1F7E7114B1A68C9
:10077000012A03D1C022104B1A600BE00F4A1A6005
:100780001A68012AFCD1F5E7C1218020C900C00503
:100790004250D5E710BDC046E00F00F0E40F00F076
:1007A000E80F00F0EC0F00F0DFFF07C00405004089
:1007B000186C004000EC064014EC064075930000F5
:1007C000084A0949094B10B51B688858FA22190ACA
:1007D0001B0618439200002300F08CFC4904C00B58
:1007E000084310BD04050000001001400C3D00202E
:1007F000084B094A09491B688858190A1B0610B595
:100800001843074A002300F075FC4904C00B084355
:1008100010BDC0460C3D0020040500000010014042
:1008200040420F0070B5041E09D0FFF7C9FF050054
:1008300000F014F8FFF7C4FF401B8442F8D870BDE5
:100840000022044B9A60044A13680133DBB2136040
:100850007047C046FC1001400C3D0020704700006E
:10086000F7B50023202877D83C4B8000C258042AD3
:1008700014D006D8022A0DD00ED80423012A14D091
:1008800069E0062A0ED00BD31A2A0DD002231B2AA8
:100890000BD060E0082308E0102306E0202304E0EA
:1008A000402302E0802300E001232D4A1268082A39
:1008B00004D9092A05D00A21022404E008210024D1
:1008C00001E011000124A02501261C272548ED0088
:1008D0004651254D254E2D681B02AD003D4001952A
:1008E000234D2D6800958559AC466746214D3D4006
:1008F0001D4385518359C0259C46009BAD021D4078
:10090000FF2367461B023B402B43019D1D43009B79
:100910005F0160231F402B003B431C430123845194
:10092000154C036063680F48002BFBD00024124B6A
:1009300001255C60A123DB00C3584560A025ED00C4
:1009400044511BB2914207D002D98A1AD34003E026
:10095000521A934000E000231800FEBD4814000026
:100960000C0000200070004008000020040500007A
:1009700004000020FF00FFFFFC7000401E4BF0B59C
:10098000596C18001D4A002914D0A025A126002367
:100990000124ED05F600D1584F1C06D0D7187F680A
:1009A000002F02D027008F40AF5114333C2BF2D1DF
:1009B00000234364131DA0254032944600200124E7
:1009C0000F4EED05DA680F49920057180A49521880
:1009D000526C002A0CD01A1F1268511C05D01968DD
:1009E000FF2902D021009140A9513A00FC32506405
:1009F00014339C45E6D1F0BDFC900040100000206F
:100A00000C0500000090004000B5202816D80C4AC4
:100A100083009B58032911D8A0220800C133FF335B
:100A2000D2059B0000F070FA02080406002104E0E1
:100A30000C2102E0042100E00321D15000BDC0469A
:100A40004814000020280DD8074B8000C058A02271
:100A50000123D2058340002901D1044901E0A121ED
:100A6000C90053507047C046481400000C050000F0
:100A7000F7B506000D000C008B180193019B671B56
:100A80009C4207D0336821781B68300098470134B6
:100A90000028F3D13800FEBD70B505000C00081E1B
:100AA00007D000F021FC2B6802005B6821002800C1
:100AB000984770BD10B5FFF7EFFF10BD01207047DC
:100AC00010B503681322DB69984710BD704700001A
:100AD0000369054A9950FC331A6A002AFCD00022A7
:100AE00001201A627047C0461C050000030010B5C3
:100AF0005C331A781F2313400122110099400D4BDB
:100B00000424D967C221036989005C505A60DA6005
:100B1000A0220021D20099500122074952425A5086
:100B2000064914305A500C395A5008315A5000F0C6
:100B3000C9F910BD04E100E00C0500001405000037
:100B400010B5143000F0D0F910BD10B5143000F01D
:100B5000D1F910BD10B5143000F0B8F910BD000087
:100B6000030070B55E331C780269604BD4500300FB
:100B70005D331C785E4BD450030061331C785D4BB1
:100B8000012C0CD105005F352E78A225ED005651C1
:100B9000050060352E78A125ED00565100E00024B7
:100BA000D4509623DB00994238D996231B019942F1
:100BB00037D996235B01994236D996239B019942F6
:100BC00034D9E1239B01994232D99623DB01994222
:100BD00031D9E123DB0199422FD996231B02994297
:100BE0002DD9E1231B0299422BD996235B0299420E
:100BF00029D9E1235B02994227D9E1239B0299423B
:100C000025D93D4B994224D9E123DB02994223D9CE
:100C1000E1231B03994221D8384B21E09E23DB02BC
:100C20001EE09D231B031BE0354B19E0354B17E0FD
:100C3000EC239B0314E0344B12E0344B10E0344BB4
:100C40000EE0344B0CE0344B0AE0344B08E0344BFC
:100C500006E08023DB0403E0324B01E080235B05E8
:100C60003149002453500423243953501100FC31DE
:100C7000CC600C62C1210134890014605C30946046
:100C8000535003781F202200D9B20840824080349C
:100C90002648FF345BB20251002B13DA0F230B40BE
:100CA000083B234C9B089B001B1903242140A140B7
:100CB000FC348C40DD69A543C0248C4021002943CD
:100CC000D96111E0194C9B089B001B19032421409A
:100CD000A140C025FC348C40AD005E59A643C02421
:100CE0008C40210031435951026070BD0C05000059
:100CF000140500006C05000090D0030000D0BE0E6B
:100D000000B013000050270000A04E0000F0750056
:100D100000509D0000F0EB0000903A0100E0D70188
:100D200000B0AF0300705F072405000000E100E0A1
:100D300000ED00E0F7B5009308AB1B7800250193A8
:100D4000FA2304009B0083600E4B45600833036068
:100D500014300F00160000F09FF823005C33276169
:100D60001E70009B084A9B00995823005D33197040
:100D7000019B20009B009A5823005E33DD701A709F
:100D8000FEBDC046CC14000048140000036910B535
:100D90001A00FC32D2680400002A0AD0A322D20032
:100DA00099581430C9B200F082F800222369FC334C
:100DB000DA6010BD10B50248FFF7E8FF10BDC0466D
:100DC000103D0020162307B5022200930249013B83
:100DD0000248FFF7AFFF07BD00200040103D002094
:100DE00010B5002801D000F015FA10BD002110B593
:100DF000041E8C4204D000F03BFA210000F074F98C
:100E0000080010BD10B5041E8C4203DA081AFFF763
:100E1000EDFF2418200010BD7047000010B500F051
:100E200011F8FFF7F9FF0120FFF7FCFCFFF74CFA80
:100E3000FFF766FA024B002BFAD000E000BFF7E79D
:100E400000000000C421114A89005058104B034093
:100E5000C020000203435350802391399B02FF3985
:100E6000535013608023A3220021DB05D200995048
:100E70000122A1209A60074BC0001950C120023105
:100E800080001950403019501A60704700E100E0AE
:100E9000FF00FFFF0010014010B5402200210400B8
:100EA00000F0AFF9002320002364636410BD3F23EA
:100EB000026C10B5541C2340446C9C4201D08154F8
:100EC000036410BD0023036443647047436C026CE9
:100ED000934206D03F21C25C01330B4043641000B3
:100EE00001E0012040427047036C406C181A00D5A5
:100EF00040307047436C026C934201D0C05C01E00B
:100F0000012040427047000002B471464908490080
:100F1000095C49008E4402BC7047C04603460B433F
:100F20007FD4002243088B4274D303098B425FD3E2
:100F3000030A8B4244D3030B8B4228D3030C8B420E
:100F40000DD3FF22090212BA030C8B4202D31212F4
:100F5000090265D0030B8B4219D300E0090AC30BC9
:100F60008B4201D3CB03C01A5241830B8B4201D376
:100F70008B03C01A5241430B8B4201D34B03C01A5F
:100F80005241030B8B4201D30B03C01A5241C30AD7
:100F90008B4201D3CB02C01A5241830A8B4201D348
:100FA0008B02C01A5241430A8B4201D34B02C01A32
:100FB0005241030A8B4201D30B02C01A5241CDD2D7
:100FC000C3098B4201D3CB01C01A524183098B4222
:100FD00001D38B01C01A524143098B4201D34B010B
:100FE000C01A524103098B4201D30B01C01A52416E
:100FF000C3088B4201D3CB00C01A524183088B42F5
:1010000001D38B00C01A524143088B4201D34B00DD
:10101000C01A5241411A00D201465241104670474F
:101020005DE0CA0F00D04942031000D34042534054
:1010300000229C4603098B422DD3030A8B4212D314
:10104000FC22890112BA030A8B420CD38901921146
:101050008B4208D3890192118B4204D389013AD083
:10106000921100E08909C3098B4201D3CB01C01A58
:10107000524183098B4201D38B01C01A524143096B
:101080008B4201D34B01C01A524103098B4201D359
:101090000B01C01A5241C3088B4201D3CB00C01AC6
:1010A000524183088B4201D38B00C01A5241D9D2DE
:1010B00043088B4201D34B00C01A5241411A00D25F
:1010C0000146634652415B10104601D34042002B5B
:1010D00000D54942704763465B1000D3404201B5DA
:1010E000002000F005F802BD0029F8D016E770478F
:1010F0007047C046F0B54F464646C0B41604360C9D
:101100009946330005042C0C070C150C63437E43F1
:101110006F4365431C0CAD1964199C46A64203D964
:1011200080235B02984647446346250CEF191D0453
:101130004B464A4343432D0C240464199918C9199A
:1011400020000CBC90469946F0BDC0460B0010B57F
:101150000100180000F002F810BD000070B5054C49
:1011600005001300201E04D00A000220290000E020
:1011700000BF70BD00000000084B10B50400002B3C
:1011800002D0002100E000BF054B1868836A002BE5
:1011900000D09847200000F02FF9C0460000000062
:1011A000001500000E4B70B500251E000D4CE41A12
:1011B000A410A54204D0AB00F35898470135F8E7D6
:1011C00000F01CF9084B00251E00084CE41AA4107E
:1011D000A54204D0AB00F35898470135F8E770BD3D
:1011E000B0000020B0000020B0000020BC000020B3
:1011F000002310B59A4203D0CC5CC4540133F9E704
:1012000010BD03008218934202D019700133FAE72F
:1012100070470000104B70B51C680500A36B002BD5
:1012200015D1182000F068F80C4BA06303800C4B1C
:10123000012243800B4B83800B4BC3800B4B0381FC
:101240000523438106338381002302614361002229
:10125000A36B1D615A6170BDAC0000200E3300000D
:10126000CDABFFFF341200006DE6FFFFECDEFFFFA9
:10127000154B10B51C68A36B002B15D1182000F07E
:101280003BF8124BA0630380114B01224380114BAA
:101290008380114BC380114B0381052343810633A7
:1012A0008381002302614361A46B0D4A2069616957
:1012B0000C4BFFF71FFF01220023801859412061CA
:1012C00061614800400810BDAC0000200E330000F2
:1012D000CDABFFFF341200006DE6FFFFECDEFFFF39
:1012E0002D7F954C2DF451580023C25C0133002A08
:1012F000FBD1581E7047000010B5034B0100186861
:1013000000F004F810BDC046AC000020032370B507
:10131000CD1C9D43083506000C2D01D20C2505E09F
:10132000002D03DA0C230020336040E0A942F9D8F5
:101330001F4B1C681A002100002913D00B685B1B8F
:101340000DD40B2B02D90B60CC181EE08C4202D1BD
:10135000636813601AE04B6863600C0016E00C00D1
:101360004968E9E7134C2368002B03D1300000F0F3
:1013700023F820602900300000F01EF8431CD1D073
:101380000323C41C9C43A0420AD1256020000722ED
:101390000B30231D9043C31A09D05A42E25006E095
:1013A000211A300000F008F8431CEED1BAE770BDF6
:1013B000783D0020743D0020002370B5064C0500E8
:1013C0000800236000F00AF8431C03D12368002BB7
:1013D00000D02B6070BDC046803D0020044A1368D9
:1013E000002B03D01818106018007047014BF9E764
:1013F0007C3D0020883D0020FEE7C046F8B5C04691
:10140000F8BC08BC9E467047F8B5C046F8BC08BC9E
:101410009E4670476400C8002C01F4012003E803D5
:10142000D00752454144590D0A0053594E430D0A05
:1014300000494E464F3A20526573657474696E6771
:101440002E2E2E0D0A0000000300000002000000F6
:101450000100000004000000050000001100000071
:101460000C0000000B000000120000000A00000049
:10147000060000001A000000140000001700000021
:10148000160000001500000010000000FFFFFFFF25
:10149000FFFFFFFF000000001E0000001900000019
:1014A000180000000700000008000000090000000C
:1014B0000D0000000E0000000F0000001C000000E6
:1014C0001B0000001D0000001300000000000000D1
:1014D00000000000D10A0000710A0000410B00006A
:1014E000550B00004B0B0000CD0A0000C10A0000A4
:1014F000610B0000ED0A0000BD0A0000430000007F
:081500004C0000200000000077
:081508006CECFF7F0100000004
:101510000000000003000000020000000A000000BC
:10152000FFFFFFFF000000000100000000000200BC
:1015300001000000FFFFFFFF0000000002000000AC
:101540000000040002000000FFFFFFFF0000000099
:10155000030000000000080003000000000000007D
:10156000000000000000000000000000000000007B
:10157000000000000000000000000000FC1400005B
:10158000000000000000000000000000000000005B
:10159000000000000000000000000000000000004B
:1015A000000000000000000000000000000000003B
:1015B0000000000000000000000000004C000020BF
:1015C00039010000ED010000C50D00000D01000013
:0415D0000000000017
:04000003000006955E
:00000001FF
