:10000000004000206D020000AD020000AF020000C1
:1000100000000000000000000000000000000000E0
:10002000000000000000000000000000B10200001D
:100030000000000000000000B3020000B502000054
:10004000B7020000B702000099080000B7020000E4
:10005000B70200000000000085040000B7020000A5
:10006000B7020000B7020000B7020000B7020000AC
:10007000B7020000B7020000B7020000B70200009C
:10008000B70200003D090000B7020000B7020000FF
:10009000B7020000B7020000B7020000B70200007C
:1000A000B7020000B70200000000000000000000DE
:1000B0000000000000000000000000000000000040
:1000C000054B0648033310B51B1A062B03D9044B06
:1000D000002B00D0984710BD700000207000002059
:1000E000000000000648074910B5091A8910CB0F17
:1000F0005918491003D0044B002B00D0984710BD6D
:1001000070000020700000200000000010B5074CB7
:100110002378002B09D1FFF7D3FF054B002B02D02A
:10012000044800E000BF0123237010BD70000020D0
:1001300000000000240C0000094B10B5002B03D078
:100140000849094800E000BF08480368002B02D1B5
:10015000FFF7C8FF10BD064B002BF9D09847F7E713
:100160000000000074000020240C00006C0000203F
:1001700000000000164B002B00D1144B9D4640227E
:1001800092029A1A924600218B460F461348144A4F
:10019000121A00F0B7FC0F4B002B00D098470E4B03
:1001A000002B00D098470020002104000D000D48CE
:1001B000002802D00C4800E000BF00F07DFC2000C9
:1001C000290000F081FB00F061FCC046000008003F
:1001D000004000200000000000000000700000202F
:1001E00010010020000000000000000010B5054CC8
:1001F0001A202178C9B200F089F9012223785340EE
:10020000237010BD8C00002070470000962110B5AF
:10021000134C8901200000F0C5F91249200000F0BC
:10022000B5F90121032000F053F90021032000F06B
:100230006DF901211A2000F04BF90121080000F0AE
:1002400047F90121080000F061F90221052000F0C2
:100250003FF902220449052000F09EF810BDC04677
:10026000A8000020400B0000ED01000003210A4817
:1002700002680A430260094802680A4302600849AA
:10028000084A094B9B1A03DD043BC858D050FBDCDD
:1002900000F012F8FFF76EFF2405004054050040FF
:1002A000300C00000000002070000020FEE7FEE798
:1002B000FEE7FEE7FEE7FEE72D4B10B51A78012AB0
:1002C00019D12C4A1268120715D12B4AE024116863
:1002D000F0220800104021420BD128490968114240
:1002E00009D12749274A11608021274A0902116054
:1002F00001E03028F1D01A78012A0DD11D49096892
:10030000090709D1F0201C4909680140402903D19F
:100310001A490968014223D01B68DBB2012B25D1A1
:10032000144B1B681B0721D1134B1A68F0231A408A
:10033000A02A04D1114A12681A4203D016E0D02A2A
:1003400014D1F7E7114B1A68012A03D1C022104BD0
:100350001A600BE00F4A1A601A68012AFCD1F5E70F
:10036000C1218020C900C0054250D5E710BDC0465C
:10037000E00F00F0E40F00F0E80F00F0EC0F00F0E9
:10038000DFFF07C004050040186C004000EC064089
:1003900014EC064075930000F8B5314F0D00396834
:1003A00004001600002920D110222E4800F0AAFBDC
:1003B0000121042249422C4800F0A4FB40212B4B90
:1003C0002B4AD967C0235B00D1508533FF33D35804
:1003D0009C466046274B03408020C0030343C12056
:1003E00080001350012311603B60202C37D8032E6E
:1003F00005D0042E05D0022E31D1032102E00221C6
:1004000000E0012100221C4BA400E458164B985632
:100410001E00471C1ED1134893001D501748B454AA
:100420001B18A220C0001E58154D24023540F82686
:100430001D5076011D5834400904214329431950A9
:1004400001211C580C431C50C12391400B4A9B00B6
:10045000D15004E08442DED00132042AD7D1F8BD65
:1004600094000020980000208D00002004E100E0AE
:1004700000E100E0FFFF00FF540B000000600040BF
:10048000FFE0FCFF70B5C1260024B6000C4BA200B3
:10049000D5182B68012B0FD1A3400A49895919425D
:1004A0000AD0094BE356013304D0084BD358002B34
:1004B00000D0984700232B600134042CE6D170BD96
:1004C00000610040006000408D0000209800002086
:1004D00000B5202816D80C4A83009B58032911D850
:1004E000A0220800C133FF33D2059B0000F098FA28
:1004F00002080406002104E00C2102E0042100E0CF
:100500000321D15000BDC046540B000020280DD857
:10051000074B8000C058A0220123D2058340002948
:1005200001D1044901E0A121C90053507047C046E0
:10053000540B00000C050000F7B506000D000C0080
:100540008B180193019B671B9C4207D0336821786D
:100550001B683000984701340028F3D13800FEBDF5
:1005600070B505000C00081E07D000F0D3FA2B6808
:1005700002005B6821002800984770BD10B5024951
:10058000FFF7EEFF10BDC046D80B000070B50500A8
:10059000FFF7E6FF04002800FFF7F0FF001970BD29
:1005A0000120704710B503681322DB69984710BD1E
:1005B000704700000369054A9950FC331A6A002A03
:1005C000FCD0002201201A627047C0461C050000C2
:1005D000030010B55C331A781F2313400122110069
:1005E00099400D4B0424D967C221036989005C50EE
:1005F0005A60DA60A0220021D200995001220749F6
:1006000052425A50064914305A500C395A50083147
:100610005A5000F0E3F910BD04E100E00C050000C1
:100620001405000010B5143000F0EAF910BD10B543
:10063000143000F0EBF910BD10B5143000F0D2F911
:1006400010BD0000030070B55E331C780269604B7A
:10065000D45003005D331C785E4BD45003006133EB
:100660001C785D4B012C0CD105005F352E78A2253E
:10067000ED005651050060352E78A125ED0056514C
:1006800000E00024D4509623DB00994238D9962309
:100690001B01994237D996235B01994236D996239B
:1006A0009B01994234D9E1239B01994232D9962387
:1006B000DB01994231D9E123DB0199422FD99623FD
:1006C0001B0299422DD9E1231B0299422BD9962373
:1006D0005B02994229D9E1235B02994227D9E123A0
:1006E0009B02994225D93D4B994224D9E123DB0253
:1006F000994223D9E1231B03994221D8384B21E0A9
:100700009E23DB021EE09D231B031BE0354B19E0FB
:10071000354B17E0EC239B0314E0344B12E0344BD1
:1007200010E0344B0EE0344B0CE0344B0AE0344B19
:1007300008E0344B06E08023DB0403E0324B01E0A9
:1007400080235B053149002453500423243953503E
:100750001100FC31CC600C62C121013489001460AD
:100760005C309460535003781F202200D9B20840B7
:10077000824080342648FF345BB20251002B13DAEA
:100780000F230B40083B234C9B089B001B190324A1
:100790002140A140FC348C40DD69A543C0248C403D
:1007A00021002943D96111E0194C9B089B001B19BA
:1007B00003242140A140C025FC348C40AD005E598B
:1007C000A643C0248C40210031435951026070BDC2
:1007D0000C050000140500006C05000090D003001B
:1007E00000D0BE0E00B013000050270000A04E0045
:1007F00000F0750000509D0000F0EB0000903A0101
:1008000000E0D70100B0AF0300705F0724050000CF
:1008100000E100E000ED00E0F7B5009308AB1B78C5
:1008200000250193FA2304009B0083600E4B456072
:100830000833036014300F00160000F0B9F82300ED
:100840005C3327611E70009B084A9B009958230067
:100850005D331970019B20009B009A5823005E3382
:10086000DD701A70FEBDC046EC0B0000540B00009A
:10087000036910B51A00FC32D2680400002A0AD0BD
:10088000A322D20099581430C9B200F09CF800227B
:100890002369FC33DA6010BD10B50248FFF7E8FFAA
:1008A00010BDC046A8000020162307B50222009301
:1008B0000249013B0248FFF7AFFF07BD002000409F
:1008C000A80000207047000010B500F047F8FFF7BF
:1008D000F9FF012000F024F8FFF798FCFFF794FCE3
:1008E000024B002BFAD000E000BFF7E70000000049
:1008F000084A0949094B10B51B688858FA22190A99
:100900001B0618439200002300F094F84904C00B22
:10091000084310BD04050000001001400C01002038
:1009200070B5041E09D0FFF7E3FF050000F014F8CE
:10093000FFF7DEFF401B8442F8D870BD0022044B55
:100940009A60044A13680133DBB213607047C046F3
:10095000FC1001400C01002070470000C421114A26
:1009600089005058104B0340C020000203435350ED
:10097000802391399B02FF39535013608023A322B7
:100980000021DB05D20099500122A1209A60074B7B
:10099000C0001950C1200231800019504030195058
:1009A0001A60704700E100E0FF00FFFF0010014007
:1009B00010B540220021040000F0A4F8002320001C
:1009C0002364636410BD3F23026C10B5541C2340A4
:1009D000446C9C4201D08154036410BD0023036425
:1009E00043647047436C026C934206D03F21C25C63
:1009F00001330B404364100001E001204042704786
:100A0000036C406C181A00D540307047436C026C80
:100A1000934201D0C05C01E00120404270470000D9
:100A200002B4714649084900095C49008E4402BC81
:100A30007047C046F0B54F464646C0B41604360C63
:100A40009946330005042C0C070C150C63437E43B8
:100A50006F4365431C0CAD1964199C46A64203D92B
:100A600080235B02984647446346250CEF191D041A
:100A70004B464A4343432D0C240464199918C91961
:100A800020000CBC90469946F0BDC046084B10B5FE
:100A90000400002B02D0002100E000BF054B1868C5
:100AA000836A002B00D09847200000F03BF8C04636
:100AB00000000000200C00000E4B70B500251E0049
:100AC0000D4CE41AA410A54204D0AB00F35898478B
:100AD0000135F8E700F028F8084B00251E00084C07
:100AE000E41AA410A54204D0AB00F358984701358E
:100AF000F8E770BD6000002060000020600000206A
:100B00006800002003008218934202D0197001335C
:100B1000FAE770470023C25C0133002AFBD1581E5C
:100B200070470000FEE7C046F8B5C046F8BC08BCF8
:100B30009E467047F8B5C046F8BC08BC9E46704754
:100B40006D6963726F626974206973207265616494
:100B500079210000030000000200000001000000F5
:100B60000400000005000000110000000C0000005F
:100B70000B000000120000000A0000000600000048
:100B80001A0000001400000017000000160000000A
:100B90001500000010000000FFFFFFFFFFFFFFFF38
:100BA000000000001E0000001900000018000000F6
:100BB0000700000008000000090000000D00000010
:100BC0000E0000000F0000001C0000001B000000D1
:100BD0001D000000130000000D0A006E616E006928
:100BE0006E66006F7666002E0000000000000000B8
:100BF00000000000B50500003905000025060000D2
:100C0000390600002F060000B1050000A505000010
:100C100045060000D1050000A105000043000000CA
:080C20000000002000000000AC
:080C28004CF5FF7F0100000004
:100C300000000000000000000000000000000000B4
:100C400000000000000000000000000000000000A4
:100C50001C0C00000000000000000000000000006C
:100C60000000000000000000000000000000000084
:100C70000000000000000000000000000000000074
:100C80000000000000000000000000000000000064
:100C900039010000A90800000D010000000000005B
:040000030000026D8A
:00000001FF
